{
  "_format": "hh-sol-artifact-1",
  "contractName": "SPEN",
  "sourceName": "contracts/SPEN.sol",
  "abi": [
    {
      "inputs": [],
      "stateMutability": "nonpayable",
      "type": "constructor"
    },
    {
      "anonymous": false,
      "inputs": [
        {
          "indexed": true,
          "internalType": "address",
          "name": "owner",
          "type": "address"
        },
        {
          "indexed": true,
          "internalType": "address",
          "name": "approved",
          "type": "address"
        },
        {
          "indexed": true,
          "internalType": "uint256",
          "name": "tokenId",
          "type": "uint256"
        }
      ],
      "name": "Approval",
      "type": "event"
    },
    {
      "anonymous": false,
      "inputs": [
        {
          "indexed": true,
          "internalType": "address",
          "name": "owner",
          "type": "address"
        },
        {
          "indexed": true,
          "internalType": "address",
          "name": "operator",
          "type": "address"
        },
        {
          "indexed": false,
          "internalType": "bool",
          "name": "approved",
          "type": "bool"
        }
      ],
      "name": "ApprovalForAll",
      "type": "event"
    },
    {
      "anonymous": false,
      "inputs": [
        {
          "indexed": false,
          "internalType": "uint256",
          "name": "_fromTokenId",
          "type": "uint256"
        },
        {
          "indexed": false,
          "internalType": "uint256",
          "name": "_toTokenId",
          "type": "uint256"
        }
      ],
      "name": "BatchMetadataUpdate",
      "type": "event"
    },
    {
      "anonymous": false,
      "inputs": [
        {
          "indexed": false,
          "internalType": "uint256",
          "name": "_tokenId",
          "type": "uint256"
        }
      ],
      "name": "MetadataUpdate",
      "type": "event"
    },
    {
      "anonymous": false,
      "inputs": [
        {
          "indexed": true,
          "internalType": "address",
          "name": "previousOwner",
          "type": "address"
        },
        {
          "indexed": true,
          "internalType": "address",
          "name": "newOwner",
          "type": "address"
        }
      ],
      "name": "OwnershipTransferred",
      "type": "event"
    },
    {
      "anonymous": false,
      "inputs": [
        {
          "indexed": true,
          "internalType": "address",
          "name": "from",
          "type": "address"
        },
        {
          "indexed": true,
          "internalType": "address",
          "name": "to",
          "type": "address"
        },
        {
          "indexed": true,
          "internalType": "uint256",
          "name": "tokenId",
          "type": "uint256"
        }
      ],
      "name": "Transfer",
      "type": "event"
    },
    {
      "stateMutability": "payable",
      "type": "fallback"
    },
    {
      "inputs": [
        {
          "internalType": "address",
          "name": "to",
          "type": "address"
        },
        {
          "internalType": "uint256",
          "name": "tokenId",
          "type": "uint256"
        }
      ],
      "name": "approve",
      "outputs": [],
      "stateMutability": "nonpayable",
      "type": "function"
    },
    {
      "inputs": [
        {
          "internalType": "address",
          "name": "owner",
          "type": "address"
        }
      ],
      "name": "balanceOf",
      "outputs": [
        {
          "internalType": "uint256",
          "name": "",
          "type": "uint256"
        }
      ],
      "stateMutability": "view",
      "type": "function"
    },
    {
      "inputs": [
        {
          "internalType": "uint256",
          "name": "tokenId",
          "type": "uint256"
        }
      ],
      "name": "burn",
      "outputs": [],
      "stateMutability": "nonpayable",
      "type": "function"
    },
    {
      "inputs": [
        {
          "internalType": "uint256",
          "name": "tokenId",
          "type": "uint256"
        }
      ],
      "name": "getApproved",
      "outputs": [
        {
          "internalType": "address",
          "name": "",
          "type": "address"
        }
      ],
      "stateMutability": "view",
      "type": "function"
    },
    {
      "inputs": [],
      "name": "getMintConfig",
      "outputs": [
        {
          "components": [
            {
              "internalType": "bool",
              "name": "mintingEnabled",
              "type": "bool"
            },
            {
              "internalType": "uint256",
              "name": "mintPrice",
              "type": "uint256"
            },
            {
              "internalType": "address",
              "name": "paymentTokenAddress",
              "type": "address"
            },
            {
              "internalType": "bool",
              "name": "isFreeMint",
              "type": "bool"
            },
            {
              "internalType": "string",
              "name": "paymentTokenSymbol",
              "type": "string"
            }
          ],
          "internalType": "struct SPEN.MintConfig",
          "name": "",
          "type": "tuple"
        }
      ],
      "stateMutability": "view",
      "type": "function"
    },
    {
      "inputs": [
        {
          "internalType": "address",
          "name": "owner",
          "type": "address"
        },
        {
          "internalType": "address",
          "name": "operator",
          "type": "address"
        }
      ],
      "name": "isApprovedForAll",
      "outputs": [
        {
          "internalType": "bool",
          "name": "",
          "type": "bool"
        }
      ],
      "stateMutability": "view",
      "type": "function"
    },
    {
      "inputs": [],
      "name": "isFreeMint",
      "outputs": [
        {
          "internalType": "bool",
          "name": "",
          "type": "bool"
        }
      ],
      "stateMutability": "view",
      "type": "function"
    },
    {
      "inputs": [
        {
          "internalType": "address",
          "name": "to",
          "type": "address"
        },
        {
          "internalType": "string",
          "name": "_tokenURI",
          "type": "string"
        },
        {
          "internalType": "uint256",
          "name": "contentId",
          "type": "uint256"
        }
      ],
      "name": "mintNFT",
      "outputs": [],
      "stateMutability": "payable",
      "type": "function"
    },
    {
      "inputs": [],
      "name": "mintPrice",
      "outputs": [
        {
          "internalType": "uint256",
          "name": "",
          "type": "uint256"
        }
      ],
      "stateMutability": "view",
      "type": "function"
    },
    {
      "inputs": [],
      "name": "mintingEnabled",
      "outputs": [
        {
          "internalType": "bool",
          "name": "",
          "type": "bool"
        }
      ],
      "stateMutability": "view",
      "type": "function"
    },
    {
      "inputs": [],
      "name": "name",
      "outputs": [
        {
          "internalType": "string",
          "name": "",
          "type": "string"
        }
      ],
      "stateMutability": "view",
      "type": "function"
    },
    {
      "inputs": [],
      "name": "owner",
      "outputs": [
        {
          "internalType": "address",
          "name": "",
          "type": "address"
        }
      ],
      "stateMutability": "view",
      "type": "function"
    },
    {
      "inputs": [
        {
          "internalType": "uint256",
          "name": "tokenId",
          "type": "uint256"
        }
      ],
      "name": "ownerOf",
      "outputs": [
        {
          "internalType": "address",
          "name": "",
          "type": "address"
        }
      ],
      "stateMutability": "view",
      "type": "function"
    },
    {
      "inputs": [],
      "name": "paymentToken",
      "outputs": [
        {
          "internalType": "contract IERC20",
          "name": "",
          "type": "address"
        }
      ],
      "stateMutability": "view",
      "type": "function"
    },
    {
      "inputs": [],
      "name": "paymentTokenSymbol",
      "outputs": [
        {
          "internalType": "string",
          "name": "",
          "type": "string"
        }
      ],
      "stateMutability": "view",
      "type": "function"
    },
    {
      "inputs": [
        {
          "internalType": "contract IERC20",
          "name": "_token",
          "type": "address"
        },
        {
          "internalType": "uint256",
          "name": "_amount",
          "type": "uint256"
        }
      ],
      "name": "receiveToken",
      "outputs": [],
      "stateMutability": "nonpayable",
      "type": "function"
    },
    {
      "inputs": [],
      "name": "renounceOwnership",
      "outputs": [],
      "stateMutability": "nonpayable",
      "type": "function"
    },
    {
      "inputs": [
        {
          "internalType": "address",
          "name": "from",
          "type": "address"
        },
        {
          "internalType": "address",
          "name": "to",
          "type": "address"
        },
        {
          "internalType": "uint256",
          "name": "tokenId",
          "type": "uint256"
        }
      ],
      "name": "safeTransferFrom",
      "outputs": [],
      "stateMutability": "nonpayable",
      "type": "function"
    },
    {
      "inputs": [
        {
          "internalType": "address",
          "name": "from",
          "type": "address"
        },
        {
          "internalType": "address",
          "name": "to",
          "type": "address"
        },
        {
          "internalType": "uint256",
          "name": "tokenId",
          "type": "uint256"
        },
        {
          "internalType": "bytes",
          "name": "data",
          "type": "bytes"
        }
      ],
      "name": "safeTransferFrom",
      "outputs": [],
      "stateMutability": "nonpayable",
      "type": "function"
    },
    {
      "inputs": [
        {
          "internalType": "address",
          "name": "operator",
          "type": "address"
        },
        {
          "internalType": "bool",
          "name": "approved",
          "type": "bool"
        }
      ],
      "name": "setApprovalForAll",
      "outputs": [],
      "stateMutability": "nonpayable",
      "type": "function"
    },
    {
      "inputs": [
        {
          "internalType": "uint256",
          "name": "_price",
          "type": "uint256"
        }
      ],
      "name": "setMintPrice",
      "outputs": [],
      "stateMutability": "nonpayable",
      "type": "function"
    },
    {
      "inputs": [
        {
          "internalType": "bool",
          "name": "_enabled",
          "type": "bool"
        }
      ],
      "name": "setMintingEnabled",
      "outputs": [],
      "stateMutability": "nonpayable",
      "type": "function"
    },
    {
      "inputs": [
        {
          "internalType": "contract IERC20",
          "name": "_token",
          "type": "address"
        }
      ],
      "name": "setPaymentToken",
      "outputs": [],
      "stateMutability": "nonpayable",
      "type": "function"
    },
    {
      "inputs": [
        {
          "internalType": "bytes4",
          "name": "interfaceId",
          "type": "bytes4"
        }
      ],
      "name": "supportsInterface",
      "outputs": [
        {
          "internalType": "bool",
          "name": "",
          "type": "bool"
        }
      ],
      "stateMutability": "view",
      "type": "function"
    },
    {
      "inputs": [],
      "name": "symbol",
      "outputs": [
        {
          "internalType": "string",
          "name": "",
          "type": "string"
        }
      ],
      "stateMutability": "view",
      "type": "function"
    },
    {
      "inputs": [
        {
          "internalType": "uint256",
          "name": "tokenId",
          "type": "uint256"
        }
      ],
      "name": "tokenURI",
      "outputs": [
        {
          "internalType": "string",
          "name": "",
          "type": "string"
        }
      ],
      "stateMutability": "view",
      "type": "function"
    },
    {
      "inputs": [],
      "name": "totalSupply",
      "outputs": [
        {
          "internalType": "uint256",
          "name": "",
          "type": "uint256"
        }
      ],
      "stateMutability": "view",
      "type": "function"
    },
    {
      "inputs": [
        {
          "internalType": "address",
          "name": "from",
          "type": "address"
        },
        {
          "internalType": "address",
          "name": "to",
          "type": "address"
        },
        {
          "internalType": "uint256",
          "name": "tokenId",
          "type": "uint256"
        }
      ],
      "name": "transferFrom",
      "outputs": [],
      "stateMutability": "nonpayable",
      "type": "function"
    },
    {
      "inputs": [
        {
          "internalType": "address",
          "name": "newOwner",
          "type": "address"
        }
      ],
      "name": "transferOwnership",
      "outputs": [],
      "stateMutability": "nonpayable",
      "type": "function"
    },
    {
      "inputs": [],
      "name": "withdraw",
      "outputs": [],
      "stateMutability": "nonpayable",
      "type": "function"
    },
    {
      "inputs": [
        {
          "internalType": "contract IERC20",
          "name": "_token",
          "type": "address"
        }
      ],
      "name": "withdrawToken",
      "outputs": [],
      "stateMutability": "nonpayable",
      "type": "function"
    },
    {
      "stateMutability": "payable",
      "type": "receive"
    }
  ],
  "bytecode": "0x60806040526001600c5f6101000a81548160ff0219169083151502179055503480156200002a575f80fd5b506040518060400160405280601581526020017f537570657250696363656c6c456d6272796f4e465400000000000000000000008152506040518060400160405280600481526020017f5350454e00000000000000000000000000000000000000000000000000000000815250815f9081620000a7919062000410565b508060019081620000b9919062000410565b505050620000dc620000d0620000e260201b60201c565b620000e960201b60201c565b620004f4565b5f33905090565b5f60075f9054906101000a900473ffffffffffffffffffffffffffffffffffffffff1690508160075f6101000a81548173ffffffffffffffffffffffffffffffffffffffff021916908373ffffffffffffffffffffffffffffffffffffffff1602179055508173ffffffffffffffffffffffffffffffffffffffff168173ffffffffffffffffffffffffffffffffffffffff167f8be0079c531659141344cd1fd0a4f28419497f9722a3daafe3b4186f6b6457e060405160405180910390a35050565b5f81519050919050565b7f4e487b71000000000000000000000000000000000000000000000000000000005f52604160045260245ffd5b7f4e487b71000000000000000000000000000000000000000000000000000000005f52602260045260245ffd5b5f60028204905060018216806200022857607f821691505b6020821081036200023e576200023d620001e3565b5b50919050565b5f819050815f5260205f209050919050565b5f6020601f8301049050919050565b5f82821b905092915050565b5f60088302620002a27fffffffffffffffffffffffffffffffffffffffffffffffffffffffffffffffff8262000265565b620002ae868362000265565b95508019841693508086168417925050509392505050565b5f819050919050565b5f819050919050565b5f620002f8620002f2620002ec84620002c6565b620002cf565b620002c6565b9050919050565b5f819050919050565b6200031383620002d8565b6200032b6200032282620002ff565b84845462000271565b825550505050565b5f90565b6200034162000333565b6200034e81848462000308565b505050565b5b818110156200037557620003695f8262000337565b60018101905062000354565b5050565b601f821115620003c4576200038e8162000244565b620003998462000256565b81016020851015620003a9578190505b620003c1620003b88562000256565b83018262000353565b50505b505050565b5f82821c905092915050565b5f620003e65f1984600802620003c9565b1980831691505092915050565b5f620004008383620003d5565b9150826002028217905092915050565b6200041b82620001ac565b67ffffffffffffffff811115620004375762000436620001b6565b5b62000443825462000210565b6200045082828562000379565b5f60209050601f83116001811462000486575f841562000471578287015190505b6200047d8582620003f3565b865550620004ec565b601f198416620004968662000244565b5f5b82811015620004bf5784890151825560018201915060208501945060208101905062000498565b86831015620004df5784890151620004db601f891682620003d5565b8355505b6001600288020188555050505b505050505050565b61438d80620005025f395ff3fe6080604052600436106101db575f3560e01c806370a08231116101015780639fd6db1211610094578063c87b56dd11610063578063c87b56dd14610650578063e985e9c51461068c578063f2fde38b146106c8578063f4a0a528146106f0576101e2565b80639fd6db12146105ac578063a22cb465146105d6578063b88d4fde146105fe578063c2d05a6e14610626576101e2565b80638da5cb5b116100d05780638da5cb5b146105065780639338bb5d1461053057806395d89b411461055a57806397235a1e14610584576101e2565b806370a0823114610462578063715018a61461049e57806373ee6084146104b457806389476069146104de576101e2565b80633013ce29116101795780634ea3871a116101485780634ea3871a146103ac5780636352211e146103d45780636817c76c146104105780636a326ab11461043a576101e2565b80633013ce291461031c5780633ccfd60b1461034657806342842e0e1461035c57806342966c6814610384576101e2565b806308598df0116101b557806308598df014610286578063095ea7b3146102a257806318160ddd146102ca57806323b872dd146102f4576101e2565b806301ffc9a7146101e457806306fdde0314610220578063081812fc1461024a576101e2565b366101e257005b005b3480156101ef575f80fd5b5061020a60048036038101906102059190612b7e565b610718565b6040516102179190612bc3565b60405180910390f35b34801561022b575f80fd5b50610234610729565b6040516102419190612c66565b60405180910390f35b348015610255575f80fd5b50610270600480360381019061026b9190612cb9565b6107b8565b60405161027d9190612d23565b60405180910390f35b6102a0600480360381019061029b9190612e92565b6107fa565b005b3480156102ad575f80fd5b506102c860048036038101906102c39190612efe565b610aa7565b005b3480156102d5575f80fd5b506102de610bbd565b6040516102eb9190612f4b565b60405180910390f35b3480156102ff575f80fd5b5061031a60048036038101906103159190612f64565b610bc6565b005b348015610327575f80fd5b50610330610c26565b60405161033d919061300f565b60405180910390f35b348015610351575f80fd5b5061035a610c4b565b005b348015610367575f80fd5b50610382600480360381019061037d9190612f64565b610ca5565b005b34801561038f575f80fd5b506103aa60048036038101906103a59190612cb9565b610cc4565b005b3480156103b7575f80fd5b506103d260048036038101906103cd9190613052565b610d20565b005b3480156103df575f80fd5b506103fa60048036038101906103f59190612cb9565b610d44565b6040516104079190612d23565b60405180910390f35b34801561041b575f80fd5b50610424610dc8565b6040516104319190612f4b565b60405180910390f35b348015610445575f80fd5b50610460600480360381019061045b91906130b8565b610dce565b005b34801561046d575f80fd5b50610488600480360381019061048391906130e3565b610e19565b6040516104959190612f4b565b60405180910390f35b3480156104a9575f80fd5b506104b2610ecd565b005b3480156104bf575f80fd5b506104c8610ee0565b6040516104d59190612c66565b60405180910390f35b3480156104e9575f80fd5b5061050460048036038101906104ff91906130b8565b61100a565b005b348015610511575f80fd5b5061051a611114565b6040516105279190612d23565b60405180910390f35b34801561053b575f80fd5b5061054461113c565b60405161055191906131f6565b60405180910390f35b348015610565575f80fd5b5061056e6111c9565b60405161057b9190612c66565b60405180910390f35b34801561058f575f80fd5b506105aa60048036038101906105a59190613216565b611259565b005b3480156105b7575f80fd5b506105c0611428565b6040516105cd9190612bc3565b60405180910390f35b3480156105e1575f80fd5b506105fc60048036038101906105f79190613254565b61143a565b005b348015610609575f80fd5b50610624600480360381019061061f9190613330565b611450565b005b348015610631575f80fd5b5061063a6114b2565b6040516106479190612bc3565b60405180910390f35b34801561065b575f80fd5b5061067660048036038101906106719190612cb9565b6114bd565b6040516106839190612c66565b60405180910390f35b348015610697575f80fd5b506106b260048036038101906106ad91906133b0565b61152d565b6040516106bf9190612bc3565b60405180910390f35b3480156106d3575f80fd5b506106ee60048036038101906106e991906130e3565b6115bb565b005b3480156106fb575f80fd5b5061071660048036038101906107119190612cb9565b61163d565b005b5f6107228261164f565b9050919050565b60605f80546107379061341b565b80601f01602080910402602001604051908101604052809291908181526020018280546107639061341b565b80156107ae5780601f10610785576101008083540402835291602001916107ae565b820191905f5260205f20905b81548152906001019060200180831161079157829003601f168201915b5050505050905090565b5f6107c2826116af565b60045f8381526020019081526020015f205f9054906101000a900473ffffffffffffffffffffffffffffffffffffffff169050919050565b600c5f9054906101000a900460ff16610848576040517f08c379a000000000000000000000000000000000000000000000000000000000815260040161083f90613495565b60405180910390fd5b60095f8281526020019081526020015f205f9054906101000a900460ff16156108a6576040517f08c379a000000000000000000000000000000000000000000000000000000000815260040161089d906134fd565b60405180910390fd5b6108ae6114b2565b610a31575f73ffffffffffffffffffffffffffffffffffffffff16600e5f9054906101000a900473ffffffffffffffffffffffffffffffffffffffff1673ffffffffffffffffffffffffffffffffffffffff160361095057600d5434101561094b576040517f08c379a000000000000000000000000000000000000000000000000000000000815260040161094290613565565b60405180910390fd5b610a30565b600e5f9054906101000a900473ffffffffffffffffffffffffffffffffffffffff1673ffffffffffffffffffffffffffffffffffffffff166323b872dd3330600d546040518463ffffffff1660e01b81526004016109b093929190613583565b6020604051808303815f875af11580156109cc573d5f803e3d5ffd5b505050506040513d601f19601f820116820180604052508101906109f091906135cc565b610a2f576040517f08c379a0000000000000000000000000000000000000000000000000000000008152600401610a2690613641565b60405180910390fd5b5b5b5f600854905060085f815480929190610a499061368c565b9190505550610a5884826116fa565b610a628184611717565b600160095f8481526020019081526020015f205f6101000a81548160ff02191690831515021790555081600b5f8381526020019081526020015f208190555050505050565b5f610ab182610d44565b90508073ffffffffffffffffffffffffffffffffffffffff168373ffffffffffffffffffffffffffffffffffffffff1603610b21576040517f08c379a0000000000000000000000000000000000000000000000000000000008152600401610b1890613743565b60405180910390fd5b8073ffffffffffffffffffffffffffffffffffffffff16610b406117b9565b73ffffffffffffffffffffffffffffffffffffffff161480610b6f5750610b6e81610b696117b9565b61152d565b5b610bae576040517f08c379a0000000000000000000000000000000000000000000000000000000008152600401610ba5906137d1565b60405180910390fd5b610bb883836117c0565b505050565b5f600854905090565b610bd7610bd16117b9565b82611876565b610c16576040517f08c379a0000000000000000000000000000000000000000000000000000000008152600401610c0d9061385f565b60405180910390fd5b610c2183838361190a565b505050565b600e5f9054906101000a900473ffffffffffffffffffffffffffffffffffffffff1681565b610c53611bf6565b5f479050610c5f611114565b73ffffffffffffffffffffffffffffffffffffffff166108fc8290811502906040515f60405180830381858888f19350505050158015610ca1573d5f803e3d5ffd5b5050565b610cbf83838360405180602001604052805f815250611450565b505050565b610cd5610ccf6117b9565b82611876565b610d14576040517f08c379a0000000000000000000000000000000000000000000000000000000008152600401610d0b9061385f565b60405180910390fd5b610d1d81611c74565b50565b610d28611bf6565b80600c5f6101000a81548160ff02191690831515021790555050565b5f80610d4f83611ce7565b90505f73ffffffffffffffffffffffffffffffffffffffff168173ffffffffffffffffffffffffffffffffffffffff1603610dbf576040517f08c379a0000000000000000000000000000000000000000000000000000000008152600401610db6906138c7565b60405180910390fd5b80915050919050565b600d5481565b610dd6611bf6565b80600e5f6101000a81548173ffffffffffffffffffffffffffffffffffffffff021916908373ffffffffffffffffffffffffffffffffffffffff16021790555050565b5f8073ffffffffffffffffffffffffffffffffffffffff168273ffffffffffffffffffffffffffffffffffffffff1603610e88576040517f08c379a0000000000000000000000000000000000000000000000000000000008152600401610e7f90613955565b60405180910390fd5b60035f8373ffffffffffffffffffffffffffffffffffffffff1673ffffffffffffffffffffffffffffffffffffffff1681526020019081526020015f20549050919050565b610ed5611bf6565b610ede5f611d20565b565b60605f73ffffffffffffffffffffffffffffffffffffffff16600e5f9054906101000a900473ffffffffffffffffffffffffffffffffffffffff1673ffffffffffffffffffffffffffffffffffffffff1603610f73576040518060400160405280600381526020017f45544800000000000000000000000000000000000000000000000000000000008152509050611007565b600e5f9054906101000a900473ffffffffffffffffffffffffffffffffffffffff1673ffffffffffffffffffffffffffffffffffffffff166395d89b416040518163ffffffff1660e01b81526004015f60405180830381865afa158015610fdc573d5f803e3d5ffd5b505050506040513d5f823e3d601f19601f8201168201806040525081019061100491906139e1565b90505b90565b611012611bf6565b5f8173ffffffffffffffffffffffffffffffffffffffff166370a08231306040518263ffffffff1660e01b815260040161104c9190612d23565b602060405180830381865afa158015611067573d5f803e3d5ffd5b505050506040513d601f19601f8201168201806040525081019061108b9190613a3c565b90508173ffffffffffffffffffffffffffffffffffffffff1663a9059cbb6110b1611114565b836040518363ffffffff1660e01b81526004016110cf929190613a67565b6020604051808303815f875af11580156110eb573d5f803e3d5ffd5b505050506040513d601f19601f8201168201806040525081019061110f91906135cc565b505050565b5f60075f9054906101000a900473ffffffffffffffffffffffffffffffffffffffff16905090565b611144612a7b565b6040518060a00160405280600c5f9054906101000a900460ff1615158152602001600d548152602001600e5f9054906101000a900473ffffffffffffffffffffffffffffffffffffffff1673ffffffffffffffffffffffffffffffffffffffff1681526020016111b26114b2565b151581526020016111c1610ee0565b815250905090565b6060600180546111d89061341b565b80601f01602080910402602001604051908101604052809291908181526020018280546112049061341b565b801561124f5780601f106112265761010080835404028352916020019161124f565b820191905f5260205f20905b81548152906001019060200180831161123257829003601f168201915b5050505050905090565b611261611bf6565b5f8273ffffffffffffffffffffffffffffffffffffffff166370a08231306040518263ffffffff1660e01b815260040161129b9190612d23565b602060405180830381865afa1580156112b6573d5f803e3d5ffd5b505050506040513d601f19601f820116820180604052508101906112da9190613a3c565b90508273ffffffffffffffffffffffffffffffffffffffff166323b872dd3330856040518463ffffffff1660e01b815260040161131993929190613583565b6020604051808303815f875af1158015611335573d5f803e3d5ffd5b505050506040513d601f19601f8201168201806040525081019061135991906135cc565b505f8373ffffffffffffffffffffffffffffffffffffffff166370a08231306040518263ffffffff1660e01b81526004016113949190612d23565b602060405180830381865afa1580156113af573d5f803e3d5ffd5b505050506040513d601f19601f820116820180604052508101906113d39190613a3c565b90508282826113e29190613a8e565b14611422576040517f08c379a000000000000000000000000000000000000000000000000000000000815260040161141990613b0b565b60405180910390fd5b50505050565b600c5f9054906101000a900460ff1681565b61144c6114456117b9565b8383611de3565b5050565b61146161145b6117b9565b83611876565b6114a0576040517f08c379a00000000000000000000000000000000000000000000000000000000081526004016114979061385f565b60405180910390fd5b6114ac84848484611f4a565b50505050565b5f80600d5414905090565b6060600a5f8381526020019081526020015f205f9054906101000a900460ff161561151d576040517f08c379a0000000000000000000000000000000000000000000000000000000008152600401611514906138c7565b60405180910390fd5b61152682611fa6565b9050919050565b5f60055f8473ffffffffffffffffffffffffffffffffffffffff1673ffffffffffffffffffffffffffffffffffffffff1681526020019081526020015f205f8373ffffffffffffffffffffffffffffffffffffffff1673ffffffffffffffffffffffffffffffffffffffff1681526020019081526020015f205f9054906101000a900460ff16905092915050565b6115c3611bf6565b5f73ffffffffffffffffffffffffffffffffffffffff168173ffffffffffffffffffffffffffffffffffffffff1603611631576040517f08c379a000000000000000000000000000000000000000000000000000000000815260040161162890613b99565b60405180910390fd5b61163a81611d20565b50565b611645611bf6565b80600d8190555050565b5f634906490660e01b7bffffffffffffffffffffffffffffffffffffffffffffffffffffffff1916827bffffffffffffffffffffffffffffffffffffffffffffffffffffffff191614806116a857506116a7826120b0565b5b9050919050565b6116b881612191565b6116f7576040517f08c379a00000000000000000000000000000000000000000000000000000000081526004016116ee906138c7565b60405180910390fd5b50565b611713828260405180602001604052805f8152506121d1565b5050565b61172082612191565b61175f576040517f08c379a000000000000000000000000000000000000000000000000000000000815260040161175690613c27565b60405180910390fd5b8060065f8481526020019081526020015f20908161177d9190613dd9565b507ff8e1a15aba9398e019f0b49df1a4fde98ee17ae345cb5f6b5e2c27f5033e8ce7826040516117ad9190612f4b565b60405180910390a15050565b5f33905090565b8160045f8381526020019081526020015f205f6101000a81548173ffffffffffffffffffffffffffffffffffffffff021916908373ffffffffffffffffffffffffffffffffffffffff160217905550808273ffffffffffffffffffffffffffffffffffffffff1661183083610d44565b73ffffffffffffffffffffffffffffffffffffffff167f8c5be1e5ebec7d5bd14f71427d1e84f3dd0314c0f7b2291e5b200ac8c7c3b92560405160405180910390a45050565b5f8061188183610d44565b90508073ffffffffffffffffffffffffffffffffffffffff168473ffffffffffffffffffffffffffffffffffffffff1614806118c357506118c2818561152d565b5b8061190157508373ffffffffffffffffffffffffffffffffffffffff166118e9846107b8565b73ffffffffffffffffffffffffffffffffffffffff16145b91505092915050565b8273ffffffffffffffffffffffffffffffffffffffff1661192a82610d44565b73ffffffffffffffffffffffffffffffffffffffff1614611980576040517f08c379a000000000000000000000000000000000000000000000000000000000815260040161197790613f18565b60405180910390fd5b5f73ffffffffffffffffffffffffffffffffffffffff168273ffffffffffffffffffffffffffffffffffffffff16036119ee576040517f08c379a00000000000000000000000000000000000000000000000000000000081526004016119e590613fa6565b60405180910390fd5b6119fb838383600161222b565b8273ffffffffffffffffffffffffffffffffffffffff16611a1b82610d44565b73ffffffffffffffffffffffffffffffffffffffff1614611a71576040517f08c379a0000000000000000000000000000000000000000000000000000000008152600401611a6890613f18565b60405180910390fd5b60045f8281526020019081526020015f205f6101000a81549073ffffffffffffffffffffffffffffffffffffffff0219169055600160035f8573ffffffffffffffffffffffffffffffffffffffff1673ffffffffffffffffffffffffffffffffffffffff1681526020019081526020015f205f8282540392505081905550600160035f8473ffffffffffffffffffffffffffffffffffffffff1673ffffffffffffffffffffffffffffffffffffffff1681526020019081526020015f205f82825401925050819055508160025f8381526020019081526020015f205f6101000a81548173ffffffffffffffffffffffffffffffffffffffff021916908373ffffffffffffffffffffffffffffffffffffffff160217905550808273ffffffffffffffffffffffffffffffffffffffff168473ffffffffffffffffffffffffffffffffffffffff167fddf252ad1be2c89b69c2b068fc378daa952ba7f163c4a11628f55a4df523b3ef60405160405180910390a4611bf18383836001612231565b505050565b611bfe6117b9565b73ffffffffffffffffffffffffffffffffffffffff16611c1c611114565b73ffffffffffffffffffffffffffffffffffffffff1614611c72576040517f08c379a0000000000000000000000000000000000000000000000000000000008152600401611c699061400e565b60405180910390fd5b565b611c7d81612237565b6001600a5f8381526020019081526020015f205f6101000a81548160ff0219169083151502179055505f600b5f8381526020019081526020015f205490505f60095f8381526020019081526020015f205f6101000a81548160ff0219169083151502179055505050565b5f60025f8381526020019081526020015f205f9054906101000a900473ffffffffffffffffffffffffffffffffffffffff169050919050565b5f60075f9054906101000a900473ffffffffffffffffffffffffffffffffffffffff1690508160075f6101000a81548173ffffffffffffffffffffffffffffffffffffffff021916908373ffffffffffffffffffffffffffffffffffffffff1602179055508173ffffffffffffffffffffffffffffffffffffffff168173ffffffffffffffffffffffffffffffffffffffff167f8be0079c531659141344cd1fd0a4f28419497f9722a3daafe3b4186f6b6457e060405160405180910390a35050565b8173ffffffffffffffffffffffffffffffffffffffff168373ffffffffffffffffffffffffffffffffffffffff1603611e51576040517f08c379a0000000000000000000000000000000000000000000000000000000008152600401611e4890614076565b60405180910390fd5b8060055f8573ffffffffffffffffffffffffffffffffffffffff1673ffffffffffffffffffffffffffffffffffffffff1681526020019081526020015f205f8473ffffffffffffffffffffffffffffffffffffffff1673ffffffffffffffffffffffffffffffffffffffff1681526020019081526020015f205f6101000a81548160ff0219169083151502179055508173ffffffffffffffffffffffffffffffffffffffff168373ffffffffffffffffffffffffffffffffffffffff167f17307eab39ab6107e8899845ad3d59bd9653f200f220920489ca2b5937696c3183604051611f3d9190612bc3565b60405180910390a3505050565b611f5584848461190a565b611f6184848484612284565b611fa0576040517f08c379a0000000000000000000000000000000000000000000000000000000008152600401611f9790614104565b60405180910390fd5b50505050565b6060611fb1826116af565b5f60065f8481526020019081526020015f208054611fce9061341b565b80601f0160208091040260200160405190810160405280929190818152602001828054611ffa9061341b565b80156120455780601f1061201c57610100808354040283529160200191612045565b820191905f5260205f20905b81548152906001019060200180831161202857829003601f168201915b505050505090505f612055612406565b90505f8151036120695781925050506120ab565b5f8251111561209d57808260405160200161208592919061415c565b604051602081830303815290604052925050506120ab565b6120a68461241c565b925050505b919050565b5f7f80ac58cd000000000000000000000000000000000000000000000000000000007bffffffffffffffffffffffffffffffffffffffffffffffffffffffff1916827bffffffffffffffffffffffffffffffffffffffffffffffffffffffff1916148061217a57507f5b5e139f000000000000000000000000000000000000000000000000000000007bffffffffffffffffffffffffffffffffffffffffffffffffffffffff1916827bffffffffffffffffffffffffffffffffffffffffffffffffffffffff1916145b8061218a575061218982612481565b5b9050919050565b5f8073ffffffffffffffffffffffffffffffffffffffff166121b283611ce7565b73ffffffffffffffffffffffffffffffffffffffff1614159050919050565b6121db83836124ea565b6121e75f848484612284565b612226576040517f08c379a000000000000000000000000000000000000000000000000000000000815260040161221d90614104565b60405180910390fd5b505050565b50505050565b50505050565b612240816126fd565b5f60065f8381526020019081526020015f20805461225d9061341b565b9050146122815760065f8281526020019081526020015f205f6122809190612ac0565b5b50565b5f6122a48473ffffffffffffffffffffffffffffffffffffffff1661283e565b156123f9578373ffffffffffffffffffffffffffffffffffffffff1663150b7a026122cd6117b9565b8786866040518563ffffffff1660e01b81526004016122ef94939291906141d1565b6020604051808303815f875af192505050801561232a57506040513d601f19601f82011682018060405250810190612327919061422f565b60015b6123a9573d805f8114612358576040519150601f19603f3d011682016040523d82523d5f602084013e61235d565b606091505b505f8151036123a1576040517f08c379a000000000000000000000000000000000000000000000000000000000815260040161239890614104565b60405180910390fd5b805181602001fd5b63150b7a0260e01b7bffffffffffffffffffffffffffffffffffffffffffffffffffffffff1916817bffffffffffffffffffffffffffffffffffffffffffffffffffffffff1916149150506123fe565b600190505b949350505050565b606060405180602001604052805f815250905090565b6060612427826116af565b5f612430612406565b90505f81511161244e5760405180602001604052805f815250612479565b8061245884612860565b60405160200161246992919061415c565b6040516020818303038152906040525b915050919050565b5f7f01ffc9a7000000000000000000000000000000000000000000000000000000007bffffffffffffffffffffffffffffffffffffffffffffffffffffffff1916827bffffffffffffffffffffffffffffffffffffffffffffffffffffffff1916149050919050565b5f73ffffffffffffffffffffffffffffffffffffffff168273ffffffffffffffffffffffffffffffffffffffff1603612558576040517f08c379a000000000000000000000000000000000000000000000000000000000815260040161254f906142a4565b60405180910390fd5b61256181612191565b156125a1576040517f08c379a00000000000000000000000000000000000000000000000000000000081526004016125989061430c565b60405180910390fd5b6125ae5f8383600161222b565b6125b781612191565b156125f7576040517f08c379a00000000000000000000000000000000000000000000000000000000081526004016125ee9061430c565b60405180910390fd5b600160035f8473ffffffffffffffffffffffffffffffffffffffff1673ffffffffffffffffffffffffffffffffffffffff1681526020019081526020015f205f82825401925050819055508160025f8381526020019081526020015f205f6101000a81548173ffffffffffffffffffffffffffffffffffffffff021916908373ffffffffffffffffffffffffffffffffffffffff160217905550808273ffffffffffffffffffffffffffffffffffffffff165f73ffffffffffffffffffffffffffffffffffffffff167fddf252ad1be2c89b69c2b068fc378daa952ba7f163c4a11628f55a4df523b3ef60405160405180910390a46126f95f83836001612231565b5050565b5f61270782610d44565b9050612716815f84600161222b565b61271f82610d44565b905060045f8381526020019081526020015f205f6101000a81549073ffffffffffffffffffffffffffffffffffffffff0219169055600160035f8373ffffffffffffffffffffffffffffffffffffffff1673ffffffffffffffffffffffffffffffffffffffff1681526020019081526020015f205f828254039250508190555060025f8381526020019081526020015f205f6101000a81549073ffffffffffffffffffffffffffffffffffffffff0219169055815f73ffffffffffffffffffffffffffffffffffffffff168273ffffffffffffffffffffffffffffffffffffffff167fddf252ad1be2c89b69c2b068fc378daa952ba7f163c4a11628f55a4df523b3ef60405160405180910390a461283a815f846001612231565b5050565b5f808273ffffffffffffffffffffffffffffffffffffffff163b119050919050565b60605f600161286e8461292a565b0190505f8167ffffffffffffffff81111561288c5761288b612d6e565b5b6040519080825280601f01601f1916602001820160405280156128be5781602001600182028036833780820191505090505b5090505f82602001820190505b60011561291f578080600190039150507f3031323334353637383961626364656600000000000000000000000000000000600a86061a8153600a85816129145761291361432a565b5b0494505f85036128cb575b819350505050919050565b5f805f90507a184f03e93ff9f4daa797ed6e38ed64bf6a1f0100000000000000008310612986577a184f03e93ff9f4daa797ed6e38ed64bf6a1f010000000000000000838161297c5761297b61432a565b5b0492506040810190505b6d04ee2d6d415b85acef810000000083106129c3576d04ee2d6d415b85acef810000000083816129b9576129b861432a565b5b0492506020810190505b662386f26fc1000083106129f257662386f26fc1000083816129e8576129e761432a565b5b0492506010810190505b6305f5e1008310612a1b576305f5e1008381612a1157612a1061432a565b5b0492506008810190505b6127108310612a40576127108381612a3657612a3561432a565b5b0492506004810190505b60648310612a635760648381612a5957612a5861432a565b5b0492506002810190505b600a8310612a72576001810190505b80915050919050565b6040518060a001604052805f151581526020015f81526020015f73ffffffffffffffffffffffffffffffffffffffff1681526020015f15158152602001606081525090565b508054612acc9061341b565b5f825580601f10612add5750612afa565b601f0160209004905f5260205f2090810190612af99190612afd565b5b50565b5b80821115612b14575f815f905550600101612afe565b5090565b5f604051905090565b5f80fd5b5f80fd5b5f7fffffffff0000000000000000000000000000000000000000000000000000000082169050919050565b612b5d81612b29565b8114612b67575f80fd5b50565b5f81359050612b7881612b54565b92915050565b5f60208284031215612b9357612b92612b21565b5b5f612ba084828501612b6a565b91505092915050565b5f8115159050919050565b612bbd81612ba9565b82525050565b5f602082019050612bd65f830184612bb4565b92915050565b5f81519050919050565b5f82825260208201905092915050565b5f5b83811015612c13578082015181840152602081019050612bf8565b5f8484015250505050565b5f601f19601f8301169050919050565b5f612c3882612bdc565b612c428185612be6565b9350612c52818560208601612bf6565b612c5b81612c1e565b840191505092915050565b5f6020820190508181035f830152612c7e8184612c2e565b905092915050565b5f819050919050565b612c9881612c86565b8114612ca2575f80fd5b50565b5f81359050612cb381612c8f565b92915050565b5f60208284031215612cce57612ccd612b21565b5b5f612cdb84828501612ca5565b91505092915050565b5f73ffffffffffffffffffffffffffffffffffffffff82169050919050565b5f612d0d82612ce4565b9050919050565b612d1d81612d03565b82525050565b5f602082019050612d365f830184612d14565b92915050565b612d4581612d03565b8114612d4f575f80fd5b50565b5f81359050612d6081612d3c565b92915050565b5f80fd5b5f80fd5b7f4e487b71000000000000000000000000000000000000000000000000000000005f52604160045260245ffd5b612da482612c1e565b810181811067ffffffffffffffff82111715612dc357612dc2612d6e565b5b80604052505050565b5f612dd5612b18565b9050612de18282612d9b565b919050565b5f67ffffffffffffffff821115612e0057612dff612d6e565b5b612e0982612c1e565b9050602081019050919050565b828183375f83830152505050565b5f612e36612e3184612de6565b612dcc565b905082815260208101848484011115612e5257612e51612d6a565b5b612e5d848285612e16565b509392505050565b5f82601f830112612e7957612e78612d66565b5b8135612e89848260208601612e24565b91505092915050565b5f805f60608486031215612ea957612ea8612b21565b5b5f612eb686828701612d52565b935050602084013567ffffffffffffffff811115612ed757612ed6612b25565b5b612ee386828701612e65565b9250506040612ef486828701612ca5565b9150509250925092565b5f8060408385031215612f1457612f13612b21565b5b5f612f2185828601612d52565b9250506020612f3285828601612ca5565b9150509250929050565b612f4581612c86565b82525050565b5f602082019050612f5e5f830184612f3c565b92915050565b5f805f60608486031215612f7b57612f7a612b21565b5b5f612f8886828701612d52565b9350506020612f9986828701612d52565b9250506040612faa86828701612ca5565b9150509250925092565b5f819050919050565b5f612fd7612fd2612fcd84612ce4565b612fb4565b612ce4565b9050919050565b5f612fe882612fbd565b9050919050565b5f612ff982612fde565b9050919050565b61300981612fef565b82525050565b5f6020820190506130225f830184613000565b92915050565b61303181612ba9565b811461303b575f80fd5b50565b5f8135905061304c81613028565b92915050565b5f6020828403121561306757613066612b21565b5b5f6130748482850161303e565b91505092915050565b5f61308782612d03565b9050919050565b6130978161307d565b81146130a1575f80fd5b50565b5f813590506130b28161308e565b92915050565b5f602082840312156130cd576130cc612b21565b5b5f6130da848285016130a4565b91505092915050565b5f602082840312156130f8576130f7612b21565b5b5f61310584828501612d52565b91505092915050565b61311781612ba9565b82525050565b61312681612c86565b82525050565b61313581612d03565b82525050565b5f82825260208201905092915050565b5f61315582612bdc565b61315f818561313b565b935061316f818560208601612bf6565b61317881612c1e565b840191505092915050565b5f60a083015f8301516131985f86018261310e565b5060208301516131ab602086018261311d565b5060408301516131be604086018261312c565b5060608301516131d1606086018261310e565b50608083015184820360808601526131e9828261314b565b9150508091505092915050565b5f6020820190508181035f83015261320e8184613183565b905092915050565b5f806040838503121561322c5761322b612b21565b5b5f613239858286016130a4565b925050602061324a85828601612ca5565b9150509250929050565b5f806040838503121561326a57613269612b21565b5b5f61327785828601612d52565b92505060206132888582860161303e565b9150509250929050565b5f67ffffffffffffffff8211156132ac576132ab612d6e565b5b6132b582612c1e565b9050602081019050919050565b5f6132d46132cf84613292565b612dcc565b9050828152602081018484840111156132f0576132ef612d6a565b5b6132fb848285612e16565b509392505050565b5f82601f83011261331757613316612d66565b5b81356133278482602086016132c2565b91505092915050565b5f805f806080858703121561334857613347612b21565b5b5f61335587828801612d52565b945050602061336687828801612d52565b935050604061337787828801612ca5565b925050606085013567ffffffffffffffff81111561339857613397612b25565b5b6133a487828801613303565b91505092959194509250565b5f80604083850312156133c6576133c5612b21565b5b5f6133d385828601612d52565b92505060206133e485828601612d52565b9150509250929050565b7f4e487b71000000000000000000000000000000000000000000000000000000005f52602260045260245ffd5b5f600282049050600182168061343257607f821691505b602082108103613445576134446133ee565b5b50919050565b7f4d696e74696e672069732063757272656e746c792064697361626c65640000005f82015250565b5f61347f601d83612be6565b915061348a8261344b565b602082019050919050565b5f6020820190508181035f8301526134ac81613473565b9050919050565b7f436f6e74656e742068617320616c7265616479206265656e206d696e746564005f82015250565b5f6134e7601f83612be6565b91506134f2826134b3565b602082019050919050565b5f6020820190508181035f830152613514816134db565b9050919050565b7f496e73756666696369656e742066756e647320746f206d696e740000000000005f82015250565b5f61354f601a83612be6565b915061355a8261351b565b602082019050919050565b5f6020820190508181035f83015261357c81613543565b9050919050565b5f6060820190506135965f830186612d14565b6135a36020830185612d14565b6135b06040830184612f3c565b949350505050565b5f815190506135c681613028565b92915050565b5f602082840312156135e1576135e0612b21565b5b5f6135ee848285016135b8565b91505092915050565b7f5061796d656e74206661696c65640000000000000000000000000000000000005f82015250565b5f61362b600e83612be6565b9150613636826135f7565b602082019050919050565b5f6020820190508181035f8301526136588161361f565b9050919050565b7f4e487b71000000000000000000000000000000000000000000000000000000005f52601160045260245ffd5b5f61369682612c86565b91507fffffffffffffffffffffffffffffffffffffffffffffffffffffffffffffffff82036136c8576136c761365f565b5b600182019050919050565b7f4552433732313a20617070726f76616c20746f2063757272656e74206f776e655f8201527f7200000000000000000000000000000000000000000000000000000000000000602082015250565b5f61372d602183612be6565b9150613738826136d3565b604082019050919050565b5f6020820190508181035f83015261375a81613721565b9050919050565b7f4552433732313a20617070726f76652063616c6c6572206973206e6f7420746f5f8201527f6b656e206f776e6572206f7220617070726f76656420666f7220616c6c000000602082015250565b5f6137bb603d83612be6565b91506137c682613761565b604082019050919050565b5f6020820190508181035f8301526137e8816137af565b9050919050565b7f4552433732313a2063616c6c6572206973206e6f7420746f6b656e206f776e655f8201527f72206f7220617070726f76656400000000000000000000000000000000000000602082015250565b5f613849602d83612be6565b9150613854826137ef565b604082019050919050565b5f6020820190508181035f8301526138768161383d565b9050919050565b7f4552433732313a20696e76616c696420746f6b656e20494400000000000000005f82015250565b5f6138b1601883612be6565b91506138bc8261387d565b602082019050919050565b5f6020820190508181035f8301526138de816138a5565b9050919050565b7f4552433732313a2061646472657373207a65726f206973206e6f7420612076615f8201527f6c6964206f776e65720000000000000000000000000000000000000000000000602082015250565b5f61393f602983612be6565b915061394a826138e5565b604082019050919050565b5f6020820190508181035f83015261396c81613933565b9050919050565b5f61398561398084612de6565b612dcc565b9050828152602081018484840111156139a1576139a0612d6a565b5b6139ac848285612bf6565b509392505050565b5f82601f8301126139c8576139c7612d66565b5b81516139d8848260208601613973565b91505092915050565b5f602082840312156139f6576139f5612b21565b5b5f82015167ffffffffffffffff811115613a1357613a12612b25565b5b613a1f848285016139b4565b91505092915050565b5f81519050613a3681612c8f565b92915050565b5f60208284031215613a5157613a50612b21565b5b5f613a5e84828501613a28565b91505092915050565b5f604082019050613a7a5f830185612d14565b613a876020830184612f3c565b9392505050565b5f613a9882612c86565b9150613aa383612c86565b9250828203905081811115613abb57613aba61365f565b5b92915050565b7f5472616e7366657220616d6f756e7420646f65736e2774206d617463680000005f82015250565b5f613af5601d83612be6565b9150613b0082613ac1565b602082019050919050565b5f6020820190508181035f830152613b2281613ae9565b9050919050565b7f4f776e61626c653a206e6577206f776e657220697320746865207a65726f20615f8201527f6464726573730000000000000000000000000000000000000000000000000000602082015250565b5f613b83602683612be6565b9150613b8e82613b29565b604082019050919050565b5f6020820190508181035f830152613bb081613b77565b9050919050565b7f45524337323155524953746f726167653a2055524920736574206f66206e6f6e5f8201527f6578697374656e7420746f6b656e000000000000000000000000000000000000602082015250565b5f613c11602e83612be6565b9150613c1c82613bb7565b604082019050919050565b5f6020820190508181035f830152613c3e81613c05565b9050919050565b5f819050815f5260205f209050919050565b5f6020601f8301049050919050565b5f82821b905092915050565b5f60088302613ca17fffffffffffffffffffffffffffffffffffffffffffffffffffffffffffffffff82613c66565b613cab8683613c66565b95508019841693508086168417925050509392505050565b5f613cdd613cd8613cd384612c86565b612fb4565b612c86565b9050919050565b5f819050919050565b613cf683613cc3565b613d0a613d0282613ce4565b848454613c72565b825550505050565b5f90565b613d1e613d12565b613d29818484613ced565b505050565b5b81811015613d4c57613d415f82613d16565b600181019050613d2f565b5050565b601f821115613d9157613d6281613c45565b613d6b84613c57565b81016020851015613d7a578190505b613d8e613d8685613c57565b830182613d2e565b50505b505050565b5f82821c905092915050565b5f613db15f1984600802613d96565b1980831691505092915050565b5f613dc98383613da2565b9150826002028217905092915050565b613de282612bdc565b67ffffffffffffffff811115613dfb57613dfa612d6e565b5b613e05825461341b565b613e10828285613d50565b5f60209050601f831160018114613e41575f8415613e2f578287015190505b613e398582613dbe565b865550613ea0565b601f198416613e4f86613c45565b5f5b82811015613e7657848901518255600182019150602085019450602081019050613e51565b86831015613e935784890151613e8f601f891682613da2565b8355505b6001600288020188555050505b505050505050565b7f4552433732313a207472616e736665722066726f6d20696e636f7272656374205f8201527f6f776e6572000000000000000000000000000000000000000000000000000000602082015250565b5f613f02602583612be6565b9150613f0d82613ea8565b604082019050919050565b5f6020820190508181035f830152613f2f81613ef6565b9050919050565b7f4552433732313a207472616e7366657220746f20746865207a65726f206164645f8201527f7265737300000000000000000000000000000000000000000000000000000000602082015250565b5f613f90602483612be6565b9150613f9b82613f36565b604082019050919050565b5f6020820190508181035f830152613fbd81613f84565b9050919050565b7f4f776e61626c653a2063616c6c6572206973206e6f7420746865206f776e65725f82015250565b5f613ff8602083612be6565b915061400382613fc4565b602082019050919050565b5f6020820190508181035f83015261402581613fec565b9050919050565b7f4552433732313a20617070726f766520746f2063616c6c6572000000000000005f82015250565b5f614060601983612be6565b915061406b8261402c565b602082019050919050565b5f6020820190508181035f83015261408d81614054565b9050919050565b7f4552433732313a207472616e7366657220746f206e6f6e2045524337323152655f8201527f63656976657220696d706c656d656e7465720000000000000000000000000000602082015250565b5f6140ee603283612be6565b91506140f982614094565b604082019050919050565b5f6020820190508181035f83015261411b816140e2565b9050919050565b5f81905092915050565b5f61413682612bdc565b6141408185614122565b9350614150818560208601612bf6565b80840191505092915050565b5f614167828561412c565b9150614173828461412c565b91508190509392505050565b5f81519050919050565b5f82825260208201905092915050565b5f6141a38261417f565b6141ad8185614189565b93506141bd818560208601612bf6565b6141c681612c1e565b840191505092915050565b5f6080820190506141e45f830187612d14565b6141f16020830186612d14565b6141fe6040830185612f3c565b81810360608301526142108184614199565b905095945050505050565b5f8151905061422981612b54565b92915050565b5f6020828403121561424457614243612b21565b5b5f6142518482850161421b565b91505092915050565b7f4552433732313a206d696e7420746f20746865207a65726f20616464726573735f82015250565b5f61428e602083612be6565b91506142998261425a565b602082019050919050565b5f6020820190508181035f8301526142bb81614282565b9050919050565b7f4552433732313a20746f6b656e20616c7265616479206d696e746564000000005f82015250565b5f6142f6601c83612be6565b9150614301826142c2565b602082019050919050565b5f6020820190508181035f830152614323816142ea565b9050919050565b7f4e487b71000000000000000000000000000000000000000000000000000000005f52601260045260245ffdfea2646970667358221220ee5ba6099fa0110d8a60445b0666002839e489fcd861461a136fa63ae9eddde564736f6c63430008150033",
  "linkReferences": {},
  "deployedLinkReferences": {}
}