{
  "_format": "hh-sol-artifact-1",
  "contractName": "SuperPiccellCore",
  "sourceName": "contracts/SuperPiccellCore.sol",
  "abi": [
    {
      "anonymous": false,
      "inputs": [
        {
          "indexed": false,
          "internalType": "uint256",
          "name": "id",
          "type": "uint256"
        },
        {
          "indexed": false,
          "internalType": "string",
          "name": "content",
          "type": "string"
        }
      ],
      "name": "ContentCreated",
      "type": "event"
    },
    {
      "anonymous": false,
      "inputs": [
        {
          "indexed": false,
          "internalType": "uint256",
          "name": "id",
          "type": "uint256"
        }
      ],
      "name": "ContentDeleted",
      "type": "event"
    },
    {
      "anonymous": false,
      "inputs": [
        {
          "indexed": false,
          "internalType": "uint256",
          "name": "id",
          "type": "uint256"
        }
      ],
      "name": "ContentProtected",
      "type": "event"
    },
    {
      "anonymous": false,
      "inputs": [
        {
          "indexed": false,
          "internalType": "uint256",
          "name": "id",
          "type": "uint256"
        },
        {
          "indexed": false,
          "internalType": "string",
          "name": "newContent",
          "type": "string"
        }
      ],
      "name": "ContentUpdated",
      "type": "event"
    },
    {
      "anonymous": false,
      "inputs": [
        {
          "indexed": true,
          "internalType": "address",
          "name": "previousOwner",
          "type": "address"
        },
        {
          "indexed": true,
          "internalType": "address",
          "name": "newOwner",
          "type": "address"
        }
      ],
      "name": "OwnershipTransferred",
      "type": "event"
    },
    {
      "anonymous": false,
      "inputs": [
        {
          "indexed": false,
          "internalType": "address",
          "name": "token",
          "type": "address"
        },
        {
          "indexed": false,
          "internalType": "uint256",
          "name": "amount",
          "type": "uint256"
        },
        {
          "indexed": false,
          "internalType": "address",
          "name": "to",
          "type": "address"
        }
      ],
      "name": "TokenWithdrawn",
      "type": "event"
    },
    {
      "stateMutability": "payable",
      "type": "fallback"
    },
    {
      "inputs": [
        {
          "internalType": "uint256",
          "name": "",
          "type": "uint256"
        }
      ],
      "name": "contents",
      "outputs": [
        {
          "internalType": "uint256",
          "name": "id",
          "type": "uint256"
        },
        {
          "internalType": "bool",
          "name": "exists",
          "type": "bool"
        },
        {
          "internalType": "string",
          "name": "encoding",
          "type": "string"
        },
        {
          "internalType": "string",
          "name": "contentType",
          "type": "string"
        },
        {
          "internalType": "string",
          "name": "content",
          "type": "string"
        },
        {
          "internalType": "string",
          "name": "revision",
          "type": "string"
        },
        {
          "internalType": "uint256",
          "name": "createdAt",
          "type": "uint256"
        },
        {
          "internalType": "address",
          "name": "createdBy",
          "type": "address"
        },
        {
          "internalType": "uint256",
          "name": "updatedAt",
          "type": "uint256"
        },
        {
          "internalType": "address",
          "name": "updatedBy",
          "type": "address"
        }
      ],
      "stateMutability": "view",
      "type": "function"
    },
    {
      "inputs": [
        {
          "internalType": "string",
          "name": "_encoding",
          "type": "string"
        },
        {
          "internalType": "string",
          "name": "_contentType",
          "type": "string"
        },
        {
          "internalType": "string",
          "name": "_content",
          "type": "string"
        },
        {
          "internalType": "string",
          "name": "_revision",
          "type": "string"
        }
      ],
      "name": "createContent",
      "outputs": [],
      "stateMutability": "nonpayable",
      "type": "function"
    },
    {
      "inputs": [
        {
          "internalType": "uint256",
          "name": "id",
          "type": "uint256"
        }
      ],
      "name": "deleteContent",
      "outputs": [],
      "stateMutability": "nonpayable",
      "type": "function"
    },
    {
      "inputs": [],
      "name": "getAllContents",
      "outputs": [
        {
          "components": [
            {
              "internalType": "uint256",
              "name": "id",
              "type": "uint256"
            },
            {
              "internalType": "bool",
              "name": "exists",
              "type": "bool"
            },
            {
              "internalType": "string",
              "name": "encoding",
              "type": "string"
            },
            {
              "internalType": "string",
              "name": "contentType",
              "type": "string"
            },
            {
              "internalType": "string",
              "name": "content",
              "type": "string"
            },
            {
              "internalType": "string",
              "name": "revision",
              "type": "string"
            },
            {
              "internalType": "uint256",
              "name": "createdAt",
              "type": "uint256"
            },
            {
              "internalType": "address",
              "name": "createdBy",
              "type": "address"
            },
            {
              "internalType": "uint256",
              "name": "updatedAt",
              "type": "uint256"
            },
            {
              "internalType": "address",
              "name": "updatedBy",
              "type": "address"
            }
          ],
          "internalType": "struct SuperPiccellCore.Content[]",
          "name": "",
          "type": "tuple[]"
        }
      ],
      "stateMutability": "view",
      "type": "function"
    },
    {
      "inputs": [
        {
          "internalType": "uint256",
          "name": "id",
          "type": "uint256"
        }
      ],
      "name": "getContent",
      "outputs": [
        {
          "components": [
            {
              "internalType": "uint256",
              "name": "id",
              "type": "uint256"
            },
            {
              "internalType": "bool",
              "name": "exists",
              "type": "bool"
            },
            {
              "internalType": "string",
              "name": "encoding",
              "type": "string"
            },
            {
              "internalType": "string",
              "name": "contentType",
              "type": "string"
            },
            {
              "internalType": "string",
              "name": "content",
              "type": "string"
            },
            {
              "internalType": "string",
              "name": "revision",
              "type": "string"
            },
            {
              "internalType": "uint256",
              "name": "createdAt",
              "type": "uint256"
            },
            {
              "internalType": "address",
              "name": "createdBy",
              "type": "address"
            },
            {
              "internalType": "uint256",
              "name": "updatedAt",
              "type": "uint256"
            },
            {
              "internalType": "address",
              "name": "updatedBy",
              "type": "address"
            }
          ],
          "internalType": "struct SuperPiccellCore.Content",
          "name": "",
          "type": "tuple"
        }
      ],
      "stateMutability": "view",
      "type": "function"
    },
    {
      "inputs": [
        {
          "internalType": "string",
          "name": "_contentType",
          "type": "string"
        }
      ],
      "name": "getContentsByContentType",
      "outputs": [
        {
          "components": [
            {
              "internalType": "uint256",
              "name": "id",
              "type": "uint256"
            },
            {
              "internalType": "bool",
              "name": "exists",
              "type": "bool"
            },
            {
              "internalType": "string",
              "name": "encoding",
              "type": "string"
            },
            {
              "internalType": "string",
              "name": "contentType",
              "type": "string"
            },
            {
              "internalType": "string",
              "name": "content",
              "type": "string"
            },
            {
              "internalType": "string",
              "name": "revision",
              "type": "string"
            },
            {
              "internalType": "uint256",
              "name": "createdAt",
              "type": "uint256"
            },
            {
              "internalType": "address",
              "name": "createdBy",
              "type": "address"
            },
            {
              "internalType": "uint256",
              "name": "updatedAt",
              "type": "uint256"
            },
            {
              "internalType": "address",
              "name": "updatedBy",
              "type": "address"
            }
          ],
          "internalType": "struct SuperPiccellCore.Content[]",
          "name": "",
          "type": "tuple[]"
        }
      ],
      "stateMutability": "view",
      "type": "function"
    },
    {
      "inputs": [
        {
          "internalType": "uint256",
          "name": "id",
          "type": "uint256"
        }
      ],
      "name": "isContentProtected",
      "outputs": [
        {
          "internalType": "bool",
          "name": "",
          "type": "bool"
        }
      ],
      "stateMutability": "view",
      "type": "function"
    },
    {
      "inputs": [],
      "name": "isContractProtected",
      "outputs": [
        {
          "internalType": "bool",
          "name": "",
          "type": "bool"
        }
      ],
      "stateMutability": "view",
      "type": "function"
    },
    {
      "inputs": [],
      "name": "isProtected",
      "outputs": [
        {
          "internalType": "bool",
          "name": "",
          "type": "bool"
        }
      ],
      "stateMutability": "view",
      "type": "function"
    },
    {
      "inputs": [],
      "name": "nextContentId",
      "outputs": [
        {
          "internalType": "uint256",
          "name": "",
          "type": "uint256"
        }
      ],
      "stateMutability": "view",
      "type": "function"
    },
    {
      "inputs": [],
      "name": "owner",
      "outputs": [
        {
          "internalType": "address",
          "name": "",
          "type": "address"
        }
      ],
      "stateMutability": "view",
      "type": "function"
    },
    {
      "inputs": [
        {
          "internalType": "uint256",
          "name": "id",
          "type": "uint256"
        }
      ],
      "name": "protectContent",
      "outputs": [],
      "stateMutability": "nonpayable",
      "type": "function"
    },
    {
      "inputs": [],
      "name": "protectContract",
      "outputs": [],
      "stateMutability": "nonpayable",
      "type": "function"
    },
    {
      "inputs": [
        {
          "internalType": "uint256",
          "name": "",
          "type": "uint256"
        }
      ],
      "name": "protectedContents",
      "outputs": [
        {
          "internalType": "bool",
          "name": "",
          "type": "bool"
        }
      ],
      "stateMutability": "view",
      "type": "function"
    },
    {
      "inputs": [],
      "name": "renounceOwnership",
      "outputs": [],
      "stateMutability": "nonpayable",
      "type": "function"
    },
    {
      "inputs": [
        {
          "internalType": "address",
          "name": "newOwner",
          "type": "address"
        }
      ],
      "name": "transferOwnership",
      "outputs": [],
      "stateMutability": "nonpayable",
      "type": "function"
    },
    {
      "inputs": [
        {
          "internalType": "uint256",
          "name": "id",
          "type": "uint256"
        },
        {
          "internalType": "string",
          "name": "_content",
          "type": "string"
        }
      ],
      "name": "updateContent",
      "outputs": [],
      "stateMutability": "nonpayable",
      "type": "function"
    },
    {
      "inputs": [
        {
          "internalType": "contract IERC20",
          "name": "_token",
          "type": "address"
        },
        {
          "internalType": "uint256",
          "name": "_amount",
          "type": "uint256"
        },
        {
          "internalType": "address",
          "name": "_to",
          "type": "address"
        }
      ],
      "name": "withdrawToken",
      "outputs": [],
      "stateMutability": "nonpayable",
      "type": "function"
    },
    {
      "stateMutability": "payable",
      "type": "receive"
    }
  ],
  "bytecode": "0x608060405260016003555f60045f6101000a81548160ff0219169083151502179055503480156200002e575f80fd5b506200004f620000436200005560201b60201c565b6200005c60201b60201c565b6200011d565b5f33905090565b5f805f9054906101000a900473ffffffffffffffffffffffffffffffffffffffff169050815f806101000a81548173ffffffffffffffffffffffffffffffffffffffff021916908373ffffffffffffffffffffffffffffffffffffffff1602179055508173ffffffffffffffffffffffffffffffffffffffff168173ffffffffffffffffffffffffffffffffffffffff167f8be0079c531659141344cd1fd0a4f28419497f9722a3daafe3b4186f6b6457e060405160405180910390a35050565b6131b5806200012b5f395ff3fe60806040526004361061010c575f3560e01c8063848de42911610094578063c99fb86611610063578063c99fb866146103ce578063d82da9601461040a578063f2fde38b14610432578063f6fb48311461045a578063fed216cb146104825761014c565b8063848de429146102f95780638da5cb5b14610323578063a1cdcc201461034d578063b5ecf912146103895761014c565b80633ccdbb28116100db5780633ccdbb281461023f5780634455d45a146102675780635300f82b146102a35780635a5d2414146102cd578063715018a6146102e35761014c565b80630a248d7f146101875780630b7ad54c146101b157806325612dc6146101ed5780632892c4d8146102155761014c565b3661014c576040517f08c379a00000000000000000000000000000000000000000000000000000000081526004016101439061201a565b60405180910390fd5b6040517f08c379a000000000000000000000000000000000000000000000000000000000815260040161017e9061201a565b60405180910390fd5b348015610192575f80fd5b5061019b6104aa565b6040516101a89190612050565b60405180910390f35b3480156101bc575f80fd5b506101d760048036038101906101d291906120a4565b6104b0565b6040516101e491906122ad565b60405180910390f35b3480156101f8575f80fd5b50610213600480360381019061020e91906123f9565b61085d565b005b348015610220575f80fd5b50610229610a11565b60405161023691906125fa565b60405180910390f35b34801561024a575f80fd5b506102656004803603810190610260919061267f565b610e38565b005b348015610272575f80fd5b5061028d600480360381019061028891906126cf565b610f3a565b60405161029a91906125fa565b60405180910390f35b3480156102ae575f80fd5b506102b761142f565b6040516102c49190612725565b60405180910390f35b3480156102d8575f80fd5b506102e1611441565b005b3480156102ee575f80fd5b506102f7611465565b005b348015610304575f80fd5b5061030d611478565b60405161031a9190612725565b60405180910390f35b34801561032e575f80fd5b5061033761148d565b604051610344919061274d565b60405180910390f35b348015610358575f80fd5b50610373600480360381019061036e91906120a4565b6114b4565b6040516103809190612725565b60405180910390f35b348015610394575f80fd5b506103af60048036038101906103aa91906120a4565b61153a565b6040516103c59a9998979695949392919061279e565b60405180910390f35b3480156103d9575f80fd5b506103f460048036038101906103ef91906120a4565b6117ec565b6040516104019190612725565b60405180910390f35b348015610415575f80fd5b50610430600480360381019061042b9190612854565b611809565b005b34801561043d575f80fd5b5061045860048036038101906104539190612928565b611a6b565b005b348015610465575f80fd5b50610480600480360381019061047b91906120a4565b611aed565b005b34801561048d575f80fd5b506104a860048036038101906104a391906120a4565b611c6a565b005b60035481565b6104b8611f1f565b60015f8381526020019081526020015f206001015f9054906101000a900460ff16610518576040517f08c379a000000000000000000000000000000000000000000000000000000000815260040161050f9061299d565b60405180910390fd5b60015f8381526020019081526020015f20604051806101400160405290815f8201548152602001600182015f9054906101000a900460ff16151515158152602001600282018054610568906129e8565b80601f0160208091040260200160405190810160405280929190818152602001828054610594906129e8565b80156105df5780601f106105b6576101008083540402835291602001916105df565b820191905f5260205f20905b8154815290600101906020018083116105c257829003601f168201915b505050505081526020016003820180546105f8906129e8565b80601f0160208091040260200160405190810160405280929190818152602001828054610624906129e8565b801561066f5780601f106106465761010080835404028352916020019161066f565b820191905f5260205f20905b81548152906001019060200180831161065257829003601f168201915b50505050508152602001600482018054610688906129e8565b80601f01602080910402602001604051908101604052809291908181526020018280546106b4906129e8565b80156106ff5780601f106106d6576101008083540402835291602001916106ff565b820191905f5260205f20905b8154815290600101906020018083116106e257829003601f168201915b50505050508152602001600582018054610718906129e8565b80601f0160208091040260200160405190810160405280929190818152602001828054610744906129e8565b801561078f5780601f106107665761010080835404028352916020019161078f565b820191905f5260205f20905b81548152906001019060200180831161077257829003601f168201915b5050505050815260200160068201548152602001600782015f9054906101000a900473ffffffffffffffffffffffffffffffffffffffff1673ffffffffffffffffffffffffffffffffffffffff1673ffffffffffffffffffffffffffffffffffffffff16815260200160088201548152602001600982015f9054906101000a900473ffffffffffffffffffffffffffffffffffffffff1673ffffffffffffffffffffffffffffffffffffffff1673ffffffffffffffffffffffffffffffffffffffff16815250509050919050565b610865611dd9565b60045f9054906101000a900460ff16156108b4576040517f08c379a00000000000000000000000000000000000000000000000000000000081526004016108ab90612a62565b60405180910390fd5b5f60015f8481526020019081526020015f209050806001015f9054906101000a900460ff16610918576040517f08c379a000000000000000000000000000000000000000000000000000000000815260040161090f9061299d565b60405180910390fd5b60025f8481526020019081526020015f205f9054906101000a900460ff1615610976576040517f08c379a000000000000000000000000000000000000000000000000000000000815260040161096d90612aca565b60405180910390fd5b818160040190816109879190612c85565b5042816008018190555033816009015f6101000a81548173ffffffffffffffffffffffffffffffffffffffff021916908373ffffffffffffffffffffffffffffffffffffffff1602179055507f4071afae07e623612645169abd4d62a6bd5932a996b14deac10d9903faccea548383604051610a04929190612d54565b60405180910390a1505050565b60605f6001600354610a239190612daf565b90505f8167ffffffffffffffff811115610a4057610a3f6122d5565b5b604051908082528060200260200182016040528015610a7957816020015b610a66611f1f565b815260200190600190039081610a5e5790505b5090505f80600190505b838111610e2e5760015f8281526020019081526020015f206001015f9054906101000a900460ff1615610e1b5760015f8281526020019081526020015f20604051806101400160405290815f8201548152602001600182015f9054906101000a900460ff16151515158152602001600282018054610b00906129e8565b80601f0160208091040260200160405190810160405280929190818152602001828054610b2c906129e8565b8015610b775780601f10610b4e57610100808354040283529160200191610b77565b820191905f5260205f20905b815481529060010190602001808311610b5a57829003601f168201915b50505050508152602001600382018054610b90906129e8565b80601f0160208091040260200160405190810160405280929190818152602001828054610bbc906129e8565b8015610c075780601f10610bde57610100808354040283529160200191610c07565b820191905f5260205f20905b815481529060010190602001808311610bea57829003601f168201915b50505050508152602001600482018054610c20906129e8565b80601f0160208091040260200160405190810160405280929190818152602001828054610c4c906129e8565b8015610c975780601f10610c6e57610100808354040283529160200191610c97565b820191905f5260205f20905b815481529060010190602001808311610c7a57829003601f168201915b50505050508152602001600582018054610cb0906129e8565b80601f0160208091040260200160405190810160405280929190818152602001828054610cdc906129e8565b8015610d275780601f10610cfe57610100808354040283529160200191610d27565b820191905f5260205f20905b815481529060010190602001808311610d0a57829003601f168201915b5050505050815260200160068201548152602001600782015f9054906101000a900473ffffffffffffffffffffffffffffffffffffffff1673ffffffffffffffffffffffffffffffffffffffff1673ffffffffffffffffffffffffffffffffffffffff16815260200160088201548152602001600982015f9054906101000a900473ffffffffffffffffffffffffffffffffffffffff1673ffffffffffffffffffffffffffffffffffffffff1673ffffffffffffffffffffffffffffffffffffffff1681525050838381518110610e0157610e00612de2565b5b60200260200101819052508180610e1790612e0f565b9250505b8080610e2690612e0f565b915050610a83565b5081935050505090565b610e40611dd9565b8273ffffffffffffffffffffffffffffffffffffffff1663a9059cbb82846040518363ffffffff1660e01b8152600401610e7b929190612e56565b6020604051808303815f875af1158015610e97573d5f803e3d5ffd5b505050506040513d601f19601f82011682018060405250810190610ebb9190612ea7565b610efa576040517f08c379a0000000000000000000000000000000000000000000000000000000008152600401610ef190612f1c565b60405180910390fd5b7fa0524ee0fd8662d6c046d199da2a6d3dc49445182cec055873a5bb9c2843c8e0838383604051610f2d93929190612f3a565b60405180910390a1505050565b60605f6001600354610f4c9190612daf565b90505f80600190505b828111610fde5760015f8281526020019081526020015f206001015f9054906101000a900460ff168015610fb75750848051906020012060015f8381526020019081526020015f20600301604051610fad919061300b565b6040518091039020145b15610fcb578180610fc790612e0f565b9250505b8080610fd690612e0f565b915050610f55565b505f8167ffffffffffffffff811115610ffa57610ff96122d5565b5b60405190808252806020026020018201604052801561103357816020015b611020611f1f565b8152602001906001900390816110185790505b5090505f80600190505b8481116114225760015f8281526020019081526020015f206001015f9054906101000a900460ff16801561109f5750868051906020012060015f8381526020019081526020015f20600301604051611095919061300b565b6040518091039020145b1561140f5760015f8281526020019081526020015f20604051806101400160405290815f8201548152602001600182015f9054906101000a900460ff161515151581526020016002820180546110f4906129e8565b80601f0160208091040260200160405190810160405280929190818152602001828054611120906129e8565b801561116b5780601f106111425761010080835404028352916020019161116b565b820191905f5260205f20905b81548152906001019060200180831161114e57829003601f168201915b50505050508152602001600382018054611184906129e8565b80601f01602080910402602001604051908101604052809291908181526020018280546111b0906129e8565b80156111fb5780601f106111d2576101008083540402835291602001916111fb565b820191905f5260205f20905b8154815290600101906020018083116111de57829003601f168201915b50505050508152602001600482018054611214906129e8565b80601f0160208091040260200160405190810160405280929190818152602001828054611240906129e8565b801561128b5780601f106112625761010080835404028352916020019161128b565b820191905f5260205f20905b81548152906001019060200180831161126e57829003601f168201915b505050505081526020016005820180546112a4906129e8565b80601f01602080910402602001604051908101604052809291908181526020018280546112d0906129e8565b801561131b5780601f106112f25761010080835404028352916020019161131b565b820191905f5260205f20905b8154815290600101906020018083116112fe57829003601f168201915b5050505050815260200160068201548152602001600782015f9054906101000a900473ffffffffffffffffffffffffffffffffffffffff1673ffffffffffffffffffffffffffffffffffffffff1673ffffffffffffffffffffffffffffffffffffffff16815260200160088201548152602001600982015f9054906101000a900473ffffffffffffffffffffffffffffffffffffffff1673ffffffffffffffffffffffffffffffffffffffff1673ffffffffffffffffffffffffffffffffffffffff16815250508383815181106113f5576113f4612de2565b5b6020026020010181905250818061140b90612e0f565b9250505b808061141a90612e0f565b91505061103d565b5081945050505050919050565b60045f9054906101000a900460ff1681565b611449611dd9565b600160045f6101000a81548160ff021916908315150217905550565b61146d611dd9565b6114765f611e57565b565b5f60045f9054906101000a900460ff16905090565b5f805f9054906101000a900473ffffffffffffffffffffffffffffffffffffffff16905090565b5f60015f8381526020019081526020015f206001015f9054906101000a900460ff16611515576040517f08c379a000000000000000000000000000000000000000000000000000000000815260040161150c9061299d565b60405180910390fd5b60025f8381526020019081526020015f205f9054906101000a900460ff169050919050565b6001602052805f5260405f205f91509050805f015490806001015f9054906101000a900460ff1690806002018054611571906129e8565b80601f016020809104026020016040519081016040528092919081815260200182805461159d906129e8565b80156115e85780601f106115bf576101008083540402835291602001916115e8565b820191905f5260205f20905b8154815290600101906020018083116115cb57829003601f168201915b5050505050908060030180546115fd906129e8565b80601f0160208091040260200160405190810160405280929190818152602001828054611629906129e8565b80156116745780601f1061164b57610100808354040283529160200191611674565b820191905f5260205f20905b81548152906001019060200180831161165757829003601f168201915b505050505090806004018054611689906129e8565b80601f01602080910402602001604051908101604052809291908181526020018280546116b5906129e8565b80156117005780601f106116d757610100808354040283529160200191611700565b820191905f5260205f20905b8154815290600101906020018083116116e357829003601f168201915b505050505090806005018054611715906129e8565b80601f0160208091040260200160405190810160405280929190818152602001828054611741906129e8565b801561178c5780601f106117635761010080835404028352916020019161178c565b820191905f5260205f20905b81548152906001019060200180831161176f57829003601f168201915b505050505090806006015490806007015f9054906101000a900473ffffffffffffffffffffffffffffffffffffffff1690806008015490806009015f9054906101000a900473ffffffffffffffffffffffffffffffffffffffff1690508a565b6002602052805f5260405f205f915054906101000a900460ff1681565b611811611dd9565b60045f9054906101000a900460ff1615611860576040517f08c379a000000000000000000000000000000000000000000000000000000000815260040161185790612a62565b60405180910390fd5b5f60405180610140016040528060035481526020016001151581526020018681526020018581526020018481526020018381526020014281526020013373ffffffffffffffffffffffffffffffffffffffff1681526020014281526020013373ffffffffffffffffffffffffffffffffffffffff1681525090508060015f60035481526020019081526020015f205f820151815f01556020820151816001015f6101000a81548160ff021916908315150217905550604082015181600201908161192a9190612c85565b5060608201518160030190816119409190612c85565b5060808201518160040190816119569190612c85565b5060a082015181600501908161196c9190612c85565b5060c0820151816006015560e0820151816007015f6101000a81548173ffffffffffffffffffffffffffffffffffffffff021916908373ffffffffffffffffffffffffffffffffffffffff1602179055506101008201518160080155610120820151816009015f6101000a81548173ffffffffffffffffffffffffffffffffffffffff021916908373ffffffffffffffffffffffffffffffffffffffff1602179055509050507faed837f582e1211194de4f65621cfe69bd4d282ebba5cc38c5b2f900206322e260035484604051611a45929190612d54565b60405180910390a160035f815480929190611a5f90612e0f565b91905055505050505050565b611a73611dd9565b5f73ffffffffffffffffffffffffffffffffffffffff168173ffffffffffffffffffffffffffffffffffffffff1603611ae1576040517f08c379a0000000000000000000000000000000000000000000000000000000008152600401611ad890613091565b60405180910390fd5b611aea81611e57565b50565b611af5611dd9565b60045f9054906101000a900460ff1615611b44576040517f08c379a0000000000000000000000000000000000000000000000000000000008152600401611b3b90612a62565b60405180910390fd5b5f60015f8381526020019081526020015f209050806001015f9054906101000a900460ff16611ba8576040517f08c379a0000000000000000000000000000000000000000000000000000000008152600401611b9f9061299d565b60405180910390fd5b60025f8381526020019081526020015f205f9054906101000a900460ff1615611c06576040517f08c379a0000000000000000000000000000000000000000000000000000000008152600401611bfd906130f9565b60405180910390fd5b600160025f8481526020019081526020015f205f6101000a81548160ff0219169083151502179055507f72c94769a5825b23fe98ee2d3cf09b0f7aa5c8624797c2cdb29ebfa5a8ab45df82604051611c5e9190612050565b60405180910390a15050565b611c72611dd9565b60045f9054906101000a900460ff1615611cc1576040517f08c379a0000000000000000000000000000000000000000000000000000000008152600401611cb890612a62565b60405180910390fd5b5f60015f8381526020019081526020015f209050806001015f9054906101000a900460ff16611d25576040517f08c379a0000000000000000000000000000000000000000000000000000000008152600401611d1c9061299d565b60405180910390fd5b60025f8381526020019081526020015f205f9054906101000a900460ff1615611d83576040517f08c379a0000000000000000000000000000000000000000000000000000000008152600401611d7a90612aca565b60405180910390fd5b5f816001015f6101000a81548160ff0219169083151502179055507fbdc5f307127ee49be7848b431e1fe06bfcd681e3a7ee8b050febfc95c48d973c82604051611dcd9190612050565b60405180910390a15050565b611de1611f18565b73ffffffffffffffffffffffffffffffffffffffff16611dff61148d565b73ffffffffffffffffffffffffffffffffffffffff1614611e55576040517f08c379a0000000000000000000000000000000000000000000000000000000008152600401611e4c90613161565b60405180910390fd5b565b5f805f9054906101000a900473ffffffffffffffffffffffffffffffffffffffff169050815f806101000a81548173ffffffffffffffffffffffffffffffffffffffff021916908373ffffffffffffffffffffffffffffffffffffffff1602179055508173ffffffffffffffffffffffffffffffffffffffff168173ffffffffffffffffffffffffffffffffffffffff167f8be0079c531659141344cd1fd0a4f28419497f9722a3daafe3b4186f6b6457e060405160405180910390a35050565b5f33905090565b6040518061014001604052805f81526020015f15158152602001606081526020016060815260200160608152602001606081526020015f81526020015f73ffffffffffffffffffffffffffffffffffffffff1681526020015f81526020015f73ffffffffffffffffffffffffffffffffffffffff1681525090565b5f82825260208201905092915050565b7f436f6e747261637420646f6573206e6f7420616363657074204574686572206f5f8201527f7220746f6b656e73000000000000000000000000000000000000000000000000602082015250565b5f612004602883611f9a565b915061200f82611faa565b604082019050919050565b5f6020820190508181035f83015261203181611ff8565b9050919050565b5f819050919050565b61204a81612038565b82525050565b5f6020820190506120635f830184612041565b92915050565b5f604051905090565b5f80fd5b5f80fd5b61208381612038565b811461208d575f80fd5b50565b5f8135905061209e8161207a565b92915050565b5f602082840312156120b9576120b8612072565b5b5f6120c684828501612090565b91505092915050565b6120d881612038565b82525050565b5f8115159050919050565b6120f2816120de565b82525050565b5f81519050919050565b5f82825260208201905092915050565b5f5b8381101561212f578082015181840152602081019050612114565b5f8484015250505050565b5f601f19601f8301169050919050565b5f612154826120f8565b61215e8185612102565b935061216e818560208601612112565b6121778161213a565b840191505092915050565b5f73ffffffffffffffffffffffffffffffffffffffff82169050919050565b5f6121ab82612182565b9050919050565b6121bb816121a1565b82525050565b5f61014083015f8301516121d75f8601826120cf565b5060208301516121ea60208601826120e9565b5060408301518482036040860152612202828261214a565b9150506060830151848203606086015261221c828261214a565b91505060808301518482036080860152612236828261214a565b91505060a083015184820360a0860152612250828261214a565b91505060c083015161226560c08601826120cf565b5060e083015161227860e08601826121b2565b5061010083015161228d6101008601826120cf565b506101208301516122a26101208601826121b2565b508091505092915050565b5f6020820190508181035f8301526122c581846121c1565b905092915050565b5f80fd5b5f80fd5b7f4e487b71000000000000000000000000000000000000000000000000000000005f52604160045260245ffd5b61230b8261213a565b810181811067ffffffffffffffff8211171561232a576123296122d5565b5b80604052505050565b5f61233c612069565b90506123488282612302565b919050565b5f67ffffffffffffffff821115612367576123666122d5565b5b6123708261213a565b9050602081019050919050565b828183375f83830152505050565b5f61239d6123988461234d565b612333565b9050828152602081018484840111156123b9576123b86122d1565b5b6123c484828561237d565b509392505050565b5f82601f8301126123e0576123df6122cd565b5b81356123f084826020860161238b565b91505092915050565b5f806040838503121561240f5761240e612072565b5b5f61241c85828601612090565b925050602083013567ffffffffffffffff81111561243d5761243c612076565b5b612449858286016123cc565b9150509250929050565b5f81519050919050565b5f82825260208201905092915050565b5f819050602082019050919050565b5f61014083015f8301516124925f8601826120cf565b5060208301516124a560208601826120e9565b50604083015184820360408601526124bd828261214a565b915050606083015184820360608601526124d7828261214a565b915050608083015184820360808601526124f1828261214a565b91505060a083015184820360a086015261250b828261214a565b91505060c083015161252060c08601826120cf565b5060e083015161253360e08601826121b2565b506101008301516125486101008601826120cf565b5061012083015161255d6101208601826121b2565b508091505092915050565b5f612573838361247c565b905092915050565b5f602082019050919050565b5f61259182612453565b61259b818561245d565b9350836020820285016125ad8561246d565b805f5b858110156125e857848403895281516125c98582612568565b94506125d48361257b565b925060208a019950506001810190506125b0565b50829750879550505050505092915050565b5f6020820190508181035f8301526126128184612587565b905092915050565b5f612624826121a1565b9050919050565b6126348161261a565b811461263e575f80fd5b50565b5f8135905061264f8161262b565b92915050565b61265e816121a1565b8114612668575f80fd5b50565b5f8135905061267981612655565b92915050565b5f805f6060848603121561269657612695612072565b5b5f6126a386828701612641565b93505060206126b486828701612090565b92505060406126c58682870161266b565b9150509250925092565b5f602082840312156126e4576126e3612072565b5b5f82013567ffffffffffffffff81111561270157612700612076565b5b61270d848285016123cc565b91505092915050565b61271f816120de565b82525050565b5f6020820190506127385f830184612716565b92915050565b612747816121a1565b82525050565b5f6020820190506127605f83018461273e565b92915050565b5f612770826120f8565b61277a8185611f9a565b935061278a818560208601612112565b6127938161213a565b840191505092915050565b5f610140820190506127b25f83018d612041565b6127bf602083018c612716565b81810360408301526127d1818b612766565b905081810360608301526127e5818a612766565b905081810360808301526127f98189612766565b905081810360a083015261280d8188612766565b905061281c60c0830187612041565b61282960e083018661273e565b612837610100830185612041565b61284561012083018461273e565b9b9a5050505050505050505050565b5f805f806080858703121561286c5761286b612072565b5b5f85013567ffffffffffffffff81111561288957612888612076565b5b612895878288016123cc565b945050602085013567ffffffffffffffff8111156128b6576128b5612076565b5b6128c2878288016123cc565b935050604085013567ffffffffffffffff8111156128e3576128e2612076565b5b6128ef878288016123cc565b925050606085013567ffffffffffffffff8111156129105761290f612076565b5b61291c878288016123cc565b91505092959194509250565b5f6020828403121561293d5761293c612072565b5b5f61294a8482850161266b565b91505092915050565b7f436f6e74656e7420646f6573206e6f74206578697374000000000000000000005f82015250565b5f612987601683611f9a565b915061299282612953565b602082019050919050565b5f6020820190508181035f8301526129b48161297b565b9050919050565b7f4e487b71000000000000000000000000000000000000000000000000000000005f52602260045260245ffd5b5f60028204905060018216806129ff57607f821691505b602082108103612a1257612a116129bb565b5b50919050565b7f436f6e74726163742069732070726f74656374656400000000000000000000005f82015250565b5f612a4c601583611f9a565b9150612a5782612a18565b602082019050919050565b5f6020820190508181035f830152612a7981612a40565b9050919050565b7f436f6e74656e742069732070726f7465637465640000000000000000000000005f82015250565b5f612ab4601483611f9a565b9150612abf82612a80565b602082019050919050565b5f6020820190508181035f830152612ae181612aa8565b9050919050565b5f819050815f5260205f209050919050565b5f6020601f8301049050919050565b5f82821b905092915050565b5f60088302612b447fffffffffffffffffffffffffffffffffffffffffffffffffffffffffffffffff82612b09565b612b4e8683612b09565b95508019841693508086168417925050509392505050565b5f819050919050565b5f612b89612b84612b7f84612038565b612b66565b612038565b9050919050565b5f819050919050565b612ba283612b6f565b612bb6612bae82612b90565b848454612b15565b825550505050565b5f90565b612bca612bbe565b612bd5818484612b99565b505050565b5b81811015612bf857612bed5f82612bc2565b600181019050612bdb565b5050565b601f821115612c3d57612c0e81612ae8565b612c1784612afa565b81016020851015612c26578190505b612c3a612c3285612afa565b830182612bda565b50505b505050565b5f82821c905092915050565b5f612c5d5f1984600802612c42565b1980831691505092915050565b5f612c758383612c4e565b9150826002028217905092915050565b612c8e826120f8565b67ffffffffffffffff811115612ca757612ca66122d5565b5b612cb182546129e8565b612cbc828285612bfc565b5f60209050601f831160018114612ced575f8415612cdb578287015190505b612ce58582612c6a565b865550612d4c565b601f198416612cfb86612ae8565b5f5b82811015612d2257848901518255600182019150602085019450602081019050612cfd565b86831015612d3f5784890151612d3b601f891682612c4e565b8355505b6001600288020188555050505b505050505050565b5f604082019050612d675f830185612041565b8181036020830152612d798184612766565b90509392505050565b7f4e487b71000000000000000000000000000000000000000000000000000000005f52601160045260245ffd5b5f612db982612038565b9150612dc483612038565b9250828203905081811115612ddc57612ddb612d82565b5b92915050565b7f4e487b71000000000000000000000000000000000000000000000000000000005f52603260045260245ffd5b5f612e1982612038565b91507fffffffffffffffffffffffffffffffffffffffffffffffffffffffffffffffff8203612e4b57612e4a612d82565b5b600182019050919050565b5f604082019050612e695f83018561273e565b612e766020830184612041565b9392505050565b612e86816120de565b8114612e90575f80fd5b50565b5f81519050612ea181612e7d565b92915050565b5f60208284031215612ebc57612ebb612072565b5b5f612ec984828501612e93565b91505092915050565b7f5472616e73666572206661696c656400000000000000000000000000000000005f82015250565b5f612f06600f83611f9a565b9150612f1182612ed2565b602082019050919050565b5f6020820190508181035f830152612f3381612efa565b9050919050565b5f606082019050612f4d5f83018661273e565b612f5a6020830185612041565b612f67604083018461273e565b949350505050565b5f81905092915050565b5f819050815f5260205f209050919050565b5f8154612f97816129e8565b612fa18186612f6f565b9450600182165f8114612fbb5760018114612fd057613002565b60ff1983168652811515820286019350613002565b612fd985612f79565b5f5b83811015612ffa57815481890152600182019150602081019050612fdb565b838801955050505b50505092915050565b5f6130168284612f8b565b915081905092915050565b7f4f776e61626c653a206e6577206f776e657220697320746865207a65726f20615f8201527f6464726573730000000000000000000000000000000000000000000000000000602082015250565b5f61307b602683611f9a565b915061308682613021565b604082019050919050565b5f6020820190508181035f8301526130a88161306f565b9050919050565b7f436f6e74656e7420697320616c72656164792070726f746563746564000000005f82015250565b5f6130e3601c83611f9a565b91506130ee826130af565b602082019050919050565b5f6020820190508181035f830152613110816130d7565b9050919050565b7f4f776e61626c653a2063616c6c6572206973206e6f7420746865206f776e65725f82015250565b5f61314b602083611f9a565b915061315682613117565b602082019050919050565b5f6020820190508181035f8301526131788161313f565b905091905056fea26469706673582212209d588d943c8411003defc55e168330125b39275304476724d06147d82b26ef5d64736f6c63430008150033",
  "linkReferences": {},
  "deployedLinkReferences": {}
}